41 43 53 44  - *
62 70 6C 69 73 74  - *
00 14 00 00 01 02  - *
30 37 30 37 30  - *
7F 45 4C 46  - *
A1 B2 CD 34  - *
04 00 00 00  - *
05 00 00 00  - *
AC ED  - *
4B 57 41 4A 88 F0 27 D1  - *
CD 20 AA AA 02 00 00 00  - *
53 5A 20 88 F0 27 33 D1  - *
6F 3C  - *
53 5A 44 44 88 F0 27 33  - *
A1 B2 C3 D4  - *
34 CD B2 A1  - *
EF BB BF  - *
FE FF  - *
FF FE 00 00  - *
62 65 67 69 6E  - *
D4 C3 B2 A1  - *
37 E4 53 96 C9 DB D6 07  - *
00 00 1A 00 05 10 04  - 123
4D 5A  - 386
00 00 00 14 66 74 79 70  - 3GP
00 00 00 20 66 74 79 70  - 3GP
00 00 00 18 66 74 79 70  - 3GP5
52 49 46 46  - 4XM
37 7A BC AF 27 1C  - 7Z
00 01 42 41  - ABA
51 57 20 56 65 72 2E 20  - ABD
41 4F 4C 49 4E 44 45 58  - ABI
41 4F 4C  - ABI
41 4F 4C 44 42  - ABY
41 4F 4C  - ABY
72 69 66 66  - AC
00 01 00 00 53 74 61 6E 64 61 72 64 20 41 43 45 20 44 42  - ACCDB
4D 5A  - ACM
C3 AB CD AB  - ACS
D0 CF 11 E0 A1 B1 1A E1  - AC_
52 45 56 4E 55 4D 3A 2C  - AD
44 4F 53  - ADF
D0 CF 11 E0 A1 B1 1A E1  - ADP
03 00 00 00 41 50 50 52  - ADX
80 00 00 20 03 12 04  - ADX
46 4F 52 4D 00  - AIFF
21 12  - AIN
23 21 41 4D 52  - AMR
52 49 46 46  - ANI
4D 5A 90 00 03 00 00 00  - API
D0 CF 11 E0 A1 B1 1A E1  - APR
41 72 43 01  - ARC
1A 02  - ARC
1A 03  - ARC
1A 04  - ARC
1A 08  - ARC
1A 09  - ARC
60 EA  - ARJ
D4 2A  - ARL
30 26 B2 75 8E 66 CF 11  - ASF
53 43 48 6C  - AST
3C  - ASX
64 6E 73 2E  - AU
2E 73 6E 64  - AU
D4 2A  - AUT
52 49 46 46  - AVI
8A 01 09 00 00 00 E1 08  - AW
4D 5A 90 00 03 00 00 00  - AX
4D 5A  - AX
41 4F 4C 20 46 65 65 64  - BAG
41 4F 4C  - BAG
58 54  - BDR
42 4C 49 32 32 33 51  - BIN
42 4D  - BMP
42 5A 68  - BZ2
49 53 63 28  - CAB
4D 53 43 46  - CAB
73 72 63 64 6F 63 69 64  - CAL
53 75 70 65 72 43 61 6C  - CAL
B5 A2 B0 B3 B3 B0 A5 B5  - CAL
58 43 50 00  - CAP
52 54 53 53  - CAP
5F 43 41 53 45 5F  - CAS
30  - CAT
43 42 46 49 4C 45  - CBD
5F 43 41 53 45 5F  - CBK
52 49 46 46  - CDA
52 49 46 46  - CDR
45 4C 49 54 45 20 43 6F  - CDR
4D 53 5F 56 4F 49 43 45  - CDR
5B 66 6C 74 73 69 6D 2E  - CFG
49 54 53 46  - CHI
49 54 53 46  - CHM
CA FE BA BE  - CLASS
43 4F 4D 2B  - CLB
43 4D 58 31  - CLB
52 49 46 46  - CMX
53 51 4C 4F 43 4F 4E 56  - CNV
4E 61 6D 65 3A 20  - COD
4D 5A  - COM
E8  - COM
E9  - COM
EB  - COM
46 41 58 43 4F 56 45 52  - CPE
53 49 45 54 52 4F 4E 49  - CPI
FF 46 4F 4E 54  - CPI
4D 5A  - CPL
DC DC  - CPL
43 50 54 37 46 49 4C 45  - CPT
43 50 54 46 49 4C 45  - CPT
5B 57 69 6E 64 6F 77 73  - CPX
43 52 55 53 48 20 76  - CRU
49 49 1A 00 00 00 48 45  - CRW
63 75 73 68 00 00 00 02  - CSH
43 61 74 61 6C 6F 67 20  - CTF
56 45 52 53 49 4F 4E 20  - CTL
50 4B 03 04  - CUIX
00 00 02 00  - CUR
52 49 46 46  - DAT
A9 0D 00 00 00 00 00 00  - DAT
73 6C 68 21  - DAT
73 6C 68 2E  - DAT
41 56 47 36 5F 49 6E 74  - DAT
03  - DAT
45 52 46 53 53 41 56 45  - DAT
43 6C 69 65 6E 74 20 55  - DAT
49 6E 6E 6F 20 53 65 74  - DAT
50 4E 43 49 55 4E 44 4F  - DAT
50 45 53 54  - DAT
1A 52 54 53 20 43 4F 4D  - DAT
52 41 5A 41 54 44 42 31  - DAT
4E 41 56 54 52 41 46 46  - DAT
55 46 4F 4F 72 62 69 74  - DAT
57 4D 4D 50  - DAT
43 52 45 47  - DAT
72 65 67 66  - DAT
D0 CF 11 E0 A1 B1 1A E1  - DB
08  - DB
00 06 15 61 00 00 00 02 00 00 04 D2 00 00 10 00  - DB
44 42 46 48  - DB
53 51 4C 69 74 65 20 66 6F 72 6D 61 74 20 33 00  - DB
FD FF FF FF  - DB
03  - DB3
04  - DB4
00 01 42 44  - DBA
6C 33 33 6C  - DBB
4F 50 4C 44 61 74 61 62  - DBF
CF AD 12 FE  - DBX
3C 21 64 6F 63 74 79 70  - DCI
B1 68 DE 3A  - DCX
64 65 78 0A 30 30 39 00  - dex
42 4D  - DIB
4D 5A  - DLL
78  - DMG
4D 44 4D 50 93 A7  - DMP
50 41 47 45 44 55  - DMP
44 4D 53 21  - DMS
D0 CF 11 E0 A1 B1 1A E1  - DOC
0D 44 4F 43  - DOC
CF 11 E0 A1 B1 1A E1 00  - DOC
DB A5 2D 00  - DOC
EC A5 C1 00  - DOC
50 4B 03 04  - DOCX
50 4B 03 04 14 00 06 00  - DOCX
D0 CF 11 E0 A1 B1 1A E1  - DOT
4D 5A  - DRV
07  - DRW
01 FF 02 04 03 02  - DRW
52 49 46 46  - DS4
4D 56  - DSN
23 20 4D 69 63 72 6F 73  - DSP
02 64 73 73  - DSS
64 73 77 66 69 6C 65  - DSW
07 64 74 32 64 64 74 64  - DTD
5B 50 68 6F 6E 65 5D  - DUN
4D 53 5F 56 4F 49 43 45  - DVF
44 56 44  - DVR
4F 7B  - DW4
41 43 31 30  - DWG
45 56 46 09 0D 0A FF 00  - E01
4C 56 46 09 0D 0A FF 00  - E01
5B 47 65 6E 65 72 61 6C  - ECF
DC FE  - EFX
58 2D  - EML
52 65 74 75 72 6E 2D 50  - EML
46 72 6F 6D  - EML
40 40 40 20 00 00 40 40 40 40  - ENL
C5 D0 D3 C6  - EPS
25 21 50 53 2D 41 64 6F  - EPS
1A 35 01 00  - ETH
30 00 00 00 4C 66 4C 65  - EVT
45 6C 66 46 69 6C 65 00  - EVTX
4D 5A  - EXE
25 50 44 46  - FDF
66 4C 61 43 00 00 00 22  - FLAC
00 11  - FLI
4D 5A 90 00 03 00 00 00  - FLT
76 32 30 30 33 2E 31 30  - FLT
46 4C 56  - FLV
3C 4D 61 6B 65 72 46 69  - FM
4D 5A  - FON
D2 0A 00 00  - FTR
FE EF  - GHO
FE EF  - GHS
3F 5F 03 00  - GID
4C 4E 02 00  - GID
47 49 46 38  - GIF
99  - GPG
50 4D 43 43  - GRP
47 58 32  - GX2
1F 8B 08  - GZ
91 33 48 46  - HAP
4D 44 4D 50 93 A7  - HDMP
49 53 63 28  - HDR
23 3F 52 41 44 49 41 4E  - HDR
48 69 50 21  - hip
00 00 FF FF FF FF  - HLP
3F 5F 03 00  - HLP
4C 4E 02 00  - HLP
28 54 68 69 73 20 66 69  - HQX
00 00 01 00  - ICO
41 4F 4C 44 42  - IDX
41 4F 4C  - IDX
50 00 00 00 20 00 00 00  - IDX
44 56 44  - IFO
50 49 43 54 00 08  - IMG
EB 3C 90 2A  - IMG
53 43 4D 49  - IMG
41 4F 4C 49 44 58  - IND
41 4F 4C  - IND
E3 10 00 01 00 00 00 00  - INFO
54 68 69 73 20 69 73 20  - INFO
7A 62 65 78  - INFO
43 44 30 30 31  - ISO
2E 52 45 43  - IVR
50 4B 03 04  - JAR
5F 27 A8 89  - JAR
4A 41 52 43 53 00  - JAR
50 4B 03 04 14 00 08 00  - JAR
FF D8 FF E0  - JFIF
FF D8 FF E0  - JFIF
4A 47 03 0E  - JG
4A 47 04 0E  - JG
4E 42 2A 00  - JNT
00 00 00 0C 6A 50 20 20  - JP2
FF D8 FF E0  - JPE
FF D8 FF E0  - JPE
FF D8 FF E0  - JPEG
FF D8 FF E2  - JPEG
FF D8 FF E3  - JPEG
FF D8 FF E0  - JPG
FF D8 FF E1  - JPG
FF D8 FF E8  - JPG
4E 42 2A 00  - JTP
4B 47 42 5F 61 72 63 68  - KGB
49 44 33 03 00 00 00  - KOZ
50 4B 03 04  - KWD
C8 00 79 00  - LBK
7B 0D 0A 6F 20  - LGC
7B 0D 0A 6F 20  - LGD
2D 6C 68  - LHA
21 3C 61 72 63 68 3E 0A  - LIB
49 54 4F 4C 49 54 4C 53  - LIT
4C 00 00 00 01 14 02 00  - LNK
2A 2A 2A 20 20 49 6E 73  - LOG
57 6F 72 64 50 72 6F  - LWP
2D 6C 68  - LZH
00 00 00 20 66 74 79 70 4D 34 41  - M4A
3C 3F 78 6D 6C 20 76 65 72 73 69 6F 6E 3D  - MANIFEST
4D 41 72 30 00  - MAR
4D 41 52 43  - MAR
4D 41 52 31 00  - MAR
00 01 00 00 53 74 61 6E 64 61 72 64 20 4A 65 74 20 44 42  - MDB
01 0F 00 00  - MDF
45 50  - MDI
4D 54 68 64  - MID
4D 54 68 64  - MIDI
3C 4D 61 6B 65 72 46 69  - MIF
56 65 72 73 69 6F 6E 20  - MIF
1A 45 DF A3 93 42 82 88  - MKV
4D 49 4C 45 53  - MLS
4D 56 32 31 34  - MLS
4D 56 32 43  - MLS
4D 4C 53 57  - MLS
4D 4D 4D 44 00 00  - MMF
00 01 00 00 4D 53 49 53 41 4D 20 44 61 74 61 62 61 73 65  - MNY
FF FE 23 00 6C 00 69 00  - MOF
6D 6F 6F 76  - MOV
66 72 65 65  - MOV
6D 64 61 74  - MOV
77 69 64 65  - MOV
70 6E 6F 74  - MOV
73 6B 69 70  - MOV
0C ED  - MP
49 44 33  - MP3
00 00 01 BA  - MPG
00 00 01 B3  - MPG
D0 CF 11 E0 A1 B1 1A E1  - MSC
3C 3F 78 6D 6C 20 76 65 72 73 69 6F 6E 3D 22 31 2E 30 22 3F 3E 0D 0A 3C 4D 4D 43 5F 43 6F 6E 73 6F 6C 65 46 69 6C 65 20 43 6F 6E 73 6F 6C 65 56 65 72  - MSC
D0 CF 11 E0 A1 B1 1A E1  - MSI
23 20  - MSI
4D 53 5F 56 4F 49 43 45  - MSV
D0 CF 11 E0 A1 B1 1A E1  - MTW
0E 4E 65 72 6F 49 53 4F  - NRI
1A 00 00 04 00 00  - NSF
4E 45 53 4D 1A 01  - NSF
1A 00 00  - NTF
4E 49 54 46 30  - NTF
30 31 4F 52 44 4E 41 4E  - NTF
4D 52 56 4E  - NVRAM
4C 01  - OBJ
80  - OBJ
4D 5A  - OCX
50 4B 03 04  - ODP
50 4B 03 04  - ODT
4F 67 67 53 00 02 00 00  - OGA
4F 67 67 53 00 02 00 00  - OGG
4F 67 67 53 00 02 00 00  - OGV
4F 67 67 53 00 02 00 00  - OGX
4D 5A  - OLB
E4 52 5C 7B 8C D8 A7 4D  - ONE
D0 CF 11 E0 A1 B1 1A E1  - OPT
FD FF FF FF 20  - OPT
41 4F 4C 56 4D 31 30 30  - ORG
50 4B 03 04  - OTT
64 00 00 00  - P10
1A 0B  - PAK
50 41 43 4B  - PAK
47 50 41 54  - PAT
50 41 58  - PAX
56 43 50 43 48 30  - PCH
0A 02 01 01  - PCX
0A 03 01 01  - PCX
0A 05 01 01  - PCX
AC ED 00 05 73 72 00 12  - PDB
4D 2D 57 20 50 6F 63 6B  - PDB
4D 69 63 72 6F 73 6F 66 74 20 43 2F 43 2B 2B 20  - PDB
73 6D 5F  - PDB
73 7A 65 7A  - PDB
25 50 44 46  - PDF
11 00 00 00 53 43 43 41  - PF
41 4F 4C  - PFC
41 4F 4C 56 4D 31 30 30  - PFC
50 47 50 64 4D 41 49 4E  - PGD
50 35 0A  - PGM
4D 5A  - PIF
99 01  - PKR
89 50 4E 47 0D 0A 1A 0A  - PNG
D0 CF 11 E0 A1 B1 1A E1  - PPS
D0 CF 11 E0 A1 B1 1A E1  - PPT
00 6E 1E F0  - PPT
0F 00 E8 03  - PPT
A0 46 1D F0  - PPT
FD FF FF FF 0E 00 00 00  - PPT
FD FF FF FF 1C 00 00 00  - PPT
FD FF FF FF 43 00 00 00  - PPT
50 4B 03 04  - PPTX
50 4B 03 04 14 00 06 00  - PPTX
4D 53 43 46  - PPZ
42 4F 4F 4B 4D 4F 42 49  - PRC
74 42 4D 50 4B 6E 57 72  - PRC
38 42 50 53  - PSD
7E 42 4B 00  - PSP
D0 CF 11 E0 A1 B1 1A E1  - PUB
7B 5C 70 77 69  - PWI
B0 4D 46 43  - PWL
E3 82 85 96  - PWL
45 86 00 00 06 00  - QBB
52 49 46 46  - QCP
AC 9E BD 8F 00 00  - QDF
51 45 4C 20  - QEL
51 46 49  - QEMU
03 00 00 00  - QPH
51 57 20 56 65 72 2E 20  - QSD
4D 5A  - QTS
4D 5A  - QTX
00 00 49 49 58 50 52  - QXD
00 00 4D 4D 58 50 52  - QXD
2E 52 4D 46 00 00 00 12  - RA
2E 72 61 FD 00  - RA
72 74 73 70 3A 2F 2F  - RAM
52 61 72 21 1A 07 00  - RAR
FF FE  - REG
52 45 47 45 44 49 54  - REG
01 DA 01 01 00 03  - RGB
2E 52 4D 46  - RM
52 49 46 46  - RMI
2E 52 4D 46  - RMVB
ED AB EE DB  - RPM
43 23 2B 44 A4 43 4D A5  - RTD
7B 5C 72 74 66 31  - RTF
D0 CF 11 E0 A1 B1 1A E1  - RVT
5B 56 45 52 5D  - SAM
5B 76 65 72 5D  - SAM
24 46 4C 32 40 28 23 29  - SAV
4D 5A  - SCR
53 4D 41 52 54 44 52 57  - SDR
48 48 47 42 31  - SH3
68 49 00 00  - SHD
4B 49 00 00  - SHD
67 49 00 00  - SHD
66 49 00 00  - SHD
53 48 4F 57  - SHW
53 49 54 21 00  - SIT
53 74 75 66 66 49 74 20  - SIT
07 53 4B 46  - SKF
95 00  - SKR
95 01  - SKR
41 43 76  - SLE
3A 56 45 52 53 49 4F 4E  - SLE
4D 69 63 72 6F 73 6F 66 74 20 56 69 73 75 61 6C  - SLN
00 1E 84 90 00 00 00 00  - SNM
4D 53 43 46  - SNP
D0 CF 11 E0 A1 B1 1A E1  - SOU
00 00 01 00  - SPL
D0 CF 11 E0 A1 B1 1A E1  - SPO
52 45 47 45 44 49 54  - SUD
FD FF FF FF 04  - SUO
43 57 53  - SWF
46 57 53  - SWF
50 4B 03 04  - SXC
50 4B 03 04  - SXD
50 4B 03 04  - SXI
50 4B 03 04  - SXW
4D 5A  - SYS
FF FF FF FF  - SYS
FF 4B 45 59 42 20 20 20  - SYS
E8  - SYS
E9  - SYS
EB  - SYS
FF  - SYS
41 4D 59 4F  - SYW
75 73 74 61 72  - TAR
42 5A 68  - TAR.BZ2
1F 9D 90  - TAR.Z
1F A0  - TAR.Z
42 5A 68  - TB2
42 5A 68  - TBZ2
B4 6E 68 44  - TIB
49 20 49  - TIF
49 49 2A 00  - TIF
4D 4D 00 2A  - TIF
4D 4D 00 2B  - TIF
49 20 49  - TIFF
49 49 2A 00  - TIFF
4D 4D 00 2A  - TIFF
4D 4D 00 2B  - TIFF
4D 53 46 54 02 00 01 00  - TLB
01 10  - TR1
55 43 45 58  - UCE
55 46 41 C6 D2 C1  - UFA
4D 5A  - VBX
45 4E 54 52 59 56 43 44  - VCD
42 45 47 49 4E 3A 56 43  - VCF
5B 4D 53 56 43  - VCW
63 6F 6E 65 63 74 69 78  - VHD
43 4F 57 44  - VMDK
23 20 44 69 73 6B 20 44  - VMDK
4B 44 4D  - VMDK
00 00 01 BA  - VOB
D0 CF 11 E0 A1 B1 1A E1  - VSD
4D 5A  - VXD
9C CB CB 8D 13 75 D2 11  - WAB
81 32 84 C1 85 05 D0 11  - WAB
52 49 46 46  - WAV
00 00 02 00  - WB2
3E 00 03 00 FE FF 09 00 06  - WB3
D0 CF 11 E0 A1 B1 1A E1  - WIZ
00 00 02 00 06 04 06 00  - WK1
00 00 1A 00 00 10 04 00  - WK3
00 00 1A 00 02 10 04 00  - WK4
00 00 1A 00 02 10 04 00  - WK5
0E 57 4B 53  - WKS
FF 00 02 00 04 04 05 54  - WKS
30 26 B2 75 8E 66 CF 11  - WMA
D7 CD C6 9A  - WMF
30 26 B2 75 8E 66 CF 11  - WMV
50 4B 03 04  - WMZ
FF 57 50 43  - WP
FF 57 50 43  - WP5
FF 57 50 43  - WP6
FF 57 50 43  - WPD
81 CD AB  - WPF
FF 57 50 43  - WPG
4D 69 63 72 6F 73 6F 66 74 20 57 69 6E 64 6F 77 73 20 4D 65 64 69 61 20 50 6C 61 79 65 72 20 2D 2D 20  - WPL
FF 57 50 43  - WPP
D0 CF 11 E0 A1 B1 1A E1  - WPS
31 BE  - WRI
32 BE  - WRI
BE 00 00 00 AB  - WRI
1D 7D  - WS
57 53 32 30 30 30  - WS2
3C  - XDR
D0 CF 11 E0 A1 B1 1A E1  - XLA
D0 CF 11 E0 A1 B1 1A E1  - XLS
09 08 10 00 00 06 05 00  - XLS
FD FF FF FF 10  - XLS
FD FF FF FF 1F  - XLS
FD FF FF FF 22  - XLS
FD FF FF FF 23  - XLS
FD FF FF FF 28  - XLS
FD FF FF FF 29  - XLS
50 4B 03 04  - XLSX
50 4B 03 04 14 00 06 00  - XLSX
3C 3F 78 6D 6C 20 76 65 72 73 69 6F 6E 3D 22 31 2E 30 22 3F 3E  - XML
50 4B 03 04  - XPI
50 4B 03 04  - XPS
50 4B 03 04  - XPT
58 50 43 4F 4D 0A 54 79  - XPT
4D 5A 90 00 03 00 00 00 04 00 00 00 FF FF  - ZAP
50 4B 03 04  - ZIP
50 4B 4C 49 54 45  - ZIP
50 4B 53 70 58  - ZIP
50 4B 05 06  - ZIP
50 4B 07 08  - ZIP
57 69 6E 5A 69 70  - ZIP
50 4B 03 04 14 00 01 00  - ZIP
5A 4F 4F 20  - ZOO
